:020000040800F2
:10000000A8060020351500083D1500083F1500081A
:1000100041150008431500084515000800000000C0
:10002000000000000000000000000000471500086C
:1000300049150008000000004B1500084D15000888
:100040004F1500084F1500084F1500084F15000800
:100050004F1500084F1500084F1500084F150008F0
:100060004F1500084F1500084F1500084F150008E0
:100070004F1500084F1500084F1500084F150008D0
:100080004F1500084F1500084F1500084F150008C0
:100090004F1500084F1500084F1500084F150008B0
:1000A0004F1500084F1500084F1500084F150008A0
:1000B0004F1500084F1500084F1500084F15000890
:1000C0004F1500084F1500084F1500084F15000880
:1000D0004F1500084F1500084F1500084F15000870
:1000E0004F1500084F1500084F15000800F002F8E2
:1000F00000F03CF80AA090E8000C82448344AAF186
:100100000107DA4501D100F031F8AFF2090EBAE883
:100110000F0013F0010F18BFFB1A43F0010318473B
:100120002431000044310000103A24BF78C878C15F
:10013000FAD8520724BF30C830C144BF04680C60ED
:10014000704700000023002400250026103A28BF35
:1001500078C1FBD8520728BF30C148BF0B60704739
:100160001FB501F0E8FF1FBD10B510BD01F0AAFFDB
:100170001146FFF7F5FF00F009F801F0C8FF03B4DE
:10018000FFF7F2FF03BC01F0CFFF00000EB500F057
:100190009BFE482000F0E6FD01F080F8002001F011
:1001A000A2F9002300933E234FF6FF724021084638
:1001B00000F080F9002300933D234FF6FF724021A9
:1001C000084600F077F90123102223A18DE80E00E4
:1001D0004FF6E0731F220A21002000F06FFD01237B
:1001E000102220A18DE80E001F23DA021C2100201E
:1001F00000F064FD012310221DA18DE80E001F23D5
:100200004FF6E0722E21002000F058FD012310224D
:1002100019A18DE80E001F234FF6FF724021002028
:1002200000F04CFD0123102216A18DE80E001F23C3
:100230004FF4FC625221002000F040FD0123102207
:1002400013A18DE80E001F23DA026421002000F0C4
:1002500035FD00BFFEE70000537973506172616D98
:100260000000000054656D703A3332A1E6000000D2
:1002700048756D3A32302500564F4C3A332E32567F
:1002800000000000493A312E32356D410000000077
:1002900031323A3230414D0070B505460E461446B3
:1002A0003146284600F0ABFF204600F053FF70BDFA
:1002B0002DE9FF5F06460F4614461D46A01B401C55
:1002C0001FFA80FAE81B401C1FFA80FB681E83B2ED
:1002D000601E82B23946304600F065FF4FF00008DC
:1002E0000FE04FF0000906E00E9800F033FF09F12F
:1002F00001001FFA80F9D145F6DB08F101001FFA71
:1003000080F8D845EDDBFE484088401E83B2FC48AB
:100310000088401E82B20021084600F044FFBDE87C
:10032000FF9F2DE9FF4F85B081468A46002004904B
:1003300003900798A0EB09050898A0EB0A06CDF8F2
:100340000890CDF804A0002D01DD012705E00DB9CE
:10035000002702E04FF0FF376D42002E02DD4FF024
:10036000010806E016B94FF0000802E04FF0FF3830
:100370007642B54201DD2C4600E034464FF0000BDA
:1003800021E0019881B2029880B200F042FF049807
:10039000284404900398304403900498A04205DD5B
:1003A0000498001B04900298384402900398A042DD
:1003B00005DD0398001B03900198404401900BF168
:1003C00001001FFA80FB601C8345DADD09B0BDE83F
:1003D000F08F2DE9F04104460D4616461F462B4688
:1003E000324629462046FFF79CFF3B4622462946D7
:1003F0002046FFF796FF3B46324639462046FFF738
:1004000090FF3B46324629463046FFF78AFFBDE85B
:10041000F081F8B504460D4616461F46B9480388D4
:1004200000933B46324629462046FFF741FFF8BD80
:100430002DE9F04104460D4616461F46DDF81880AA
:10044000EA1991B2A21990B24246FFF725FFEA19C4
:1004500091B2A21B90B24246FFF71EFFEA1B91B277
:10046000A21990B24246FFF717FFEA1B91B2A21BF6
:1004700090B24246FFF710FFAA1991B2E21990B26A
:100480004246FFF709FFAA1991B2E21B90B2424619
:10049000FFF702FFAA1B91B2E21990B24246FFF7A2
:1004A000FBFEAA1B91B2E21B90B24246FFF7F4FE9C
:1004B000BDE8F0812DE9FF4F81B0824691461F468D
:1004C000DDF838B000243D467800C0F10306BBF1EA
:1004D000000F20D01CE0A04609E043462246CDF89C
:1004E000009050460299FFF7A3FF08F10108A845C4
:1004F000F3DD002E04DA042000FB0460861D06E014
:10050000601B042101FB006000F10A066D1E641CE3
:10051000AC42E0DD19E016E02B462246CDF8009013
:1005200050460299FFF784FF002E04DA042000FBF6
:100530000460861D06E0601B042101FB006000F1E1
:100540000A066D1E641CAC42E6DD05B0BDE8F08F06
:100550002DE9FF4F83B081468A469346DDE910645A
:10056000684800880290A6F12000C6B204EBD4705F
:1005700009EB6000401E82B20AEB0400401E83B209
:1005800051464846019400F00EFE129860BB0025CB
:1005900027E00C2C07D106EB46005B4901EB8000FD
:1005A00010F8058004E0594800EB061010F80580AB
:1005B00000270FE018F0010F04D00BF0FF0000F04F
:1005C000B5FD03E00698C0B200F0B0FD4FEA680840
:1005D000781CC7B204EBD471B7EB610FEADB681C7F
:1005E000C5B2A542D5DB2DE0002529E00C2C07D1B2
:1005F00006EB4600444901EB800010F8058004E05A
:10060000424800EB061010F80580002711E03D4835
:10061000A0F800B018F0010F07D00AEB050291B264
:1006200009EB070290B200F0F4FD4FEA6808781C6D
:10063000C7B204EBD471B7EB610FE8DB681CC5B23D
:10064000A542D3DB2F49029808802D484088401EE0
:1006500083B22B480088401E82B20021084600F079
:10066000A2FD07B0BDE8F08F2DE9FE4F04460E460F
:1006700091460C9F23480088029001940096002523
:1006800062E01F480088401EA04204DB1C484088EE
:10069000401EB04201DABDE8FE8F3D783A2D01D10F
:1006A0000A2506E02E2D01D10B2502E0A5F1300030
:1006B000C5B201944FF0000838E005EB450014493D
:1006C00001EB001010F808A04FF0000B26E00D48D9
:1006D000A0F800901AF0800F03D03146204600F0B9
:1006E00098FD4FEA4A404FEA104A601C84B20198D4
:1006F000201A0C280ED1019C701C86B211E000005B
:10070000340000201800002044210008B82500080B
:10071000A82B00080BF1010000F0FF0BBBF1080F44
:10072000D5DB00BF08F1010000F0FF08B8F1300F81
:10073000C3DB0A2D03DA04F1100084B202E004F1F5
:10074000080084B2009E7F1C38787E2802DC38784E
:10075000202896DAFF490298088000BF9BE72DE920
:10076000FE4305460F4616461C46DDF828801DE070
:10077000F9480088401EA84204DBF7484088401E24
:10078000B84201DABDE8FE832178F4488DE84201E1
:100790000388F048028839462846FFF7D9FE3046DC
:1007A00006EBD67105EB61018DB2641C20787E28C2
:1007B00002DC20782028DBDA00BFE3E710B5024630
:1007C000012000E050430B00A1F10104E1B2F9D196
:1007D00010BD2DE9FF4F83B0074691461E46109D80
:1007E0004FF0000A002445E0301B401EC1B20A2031
:1007F000FFF7E4FFB9FBF0F00A21B0FBF1F201FBD7
:10080000120000F0FF08BAF1000F1BD1701EA042C9
:1008100018DDB8F1000F13D101232021AB46CDE93B
:100820000153009105EBD571491001FB047188B2A9
:10083000CA490B88C7490A880499FFF789FE17E05F
:100840004FF0010A012308F13000C1B2AB46CDE9F7
:100850000153009105EBD571491001FB047188B279
:10086000BE490B88BB490A880499FFF771FE00BF97
:10087000601CC4B2B442B7DB07B0BDE8F08F2DE90D
:10088000FF4F83B00546884691469A46DDF840B052
:1008900001950520029000245FE004EB0410B049AC
:1008A00011F810009BF80010884253D104EB04109B
:1008B000AB4901EB400040789BF80110884249D1D8
:1008C00008F10F0083B205F10F0082B241462846BD
:1008D00000F069FC00263BE0002734E0119890B955
:1008E00004EB04109E4901EB4000801C805D8021D8
:1008F0003941084203D0484600F02CFC21E0504624
:1009000000F028FC1DE09348A0F8009004EB0410D0
:10091000934901EB4000801C805D802139410842F1
:1009200003D04146284600F074FC681C85B201984B
:10093000281A102805D1019D08F101001FFA80F83E
:1009400003E0781CC7B2082FC8DB00BF701CC6B21A
:10095000202EC1DB00BF601C84B2029884429CDB65
:100960007D484088401E83B27B480088401E82B28A
:100970000021084600F017FC07B0BDE8F08F2DE914
:10098000FF4F83B00546884691469A46DDF840B051
:1009900001950B200290002467E004EB840000EB3B
:1009A0004410704911F810009BF80010884259D18A
:1009B00004EB840000EB44106A4901EB40004078EE
:1009C0009BF8011088424DD108F1170083B205F160
:1009D000170082B24146284600F0E5FB00263FE0C2
:1009E000002738E01198A0B904EB840000EB441014
:1009F0005C4901EB4000801C805D80213941084248
:100A000003D0484600F0A6FB23E0504600F0A2FBCE
:100A10001FE05048A0F8009004EB840000EB441065
:100A2000504901EB4000801C805D80213941084223
:100A300003D04146284600F0ECFB681C85B20198C3
:100A4000281A182805D1019D08F101001FFA80F825
:100A500003E0781CC7B2082FC4DB00BF701CC6B20D
:100A6000482EBDDB00BF601C84B20298844294DB38
:100A700039484088401E83B237480088401E82B201
:100A80000021084600F08FFB07B0BDE8F08F2DE98C
:100A9000FF4F83B00546884691469A46DDF840B040
:100AA00001950120029000246CE004EB84102E4993
:100AB00011F810009BF80010884260D104EB8410FC
:100AC000294901EB400040789BF80110884256D13B
:100AD00008F11F0083B205F11F0082B2414628468B
:100AE00000F061FB002648E0002741E0119890B932
:100AF00004EB84101C4901EB4000801C805D8021C8
:100B00003941084203D0484600F024FB2EE050460D
:100B100000F020FB2AE00F48A0F8009004EB8410BE
:100B2000114901EB4000801C805D80213941084261
:100B300003D04146284600F06CFB681C85B2019842
:100B4000281A202812D1019D08F101001FFA80F80F
:100B500010E0000018000020340000201A000020DF
:100B6000E82D0008922E0008C0310008781CC7B29A
:100B7000082FBBDB00BF701CC6B2802EB4DB00BFE9
:100B8000601C84B2029884428FDB75484088401E06
:100B900083B273480088401E82B20021084600F0EC
:100BA00002FB07B0BDE8F08F2DE9FF4F83B006468A
:100BB0000F4690469946DDE91054B2464FF0000BBF
:100BC00077E0BBF1000F43D104EBD471644A128883
:100BD000A2EB6101B14204DB61494988091BB942BA
:100BE00002DA07B0BDE8F08F2878802802DD4FF0E8
:100BF000010B5EE028780D2804D1381987B25646DB
:100C00006D1C23E00C2C01D0102C11D12978129BE3
:100C1000CDE9014300914B46424639463046FFF745
:100C200097FC204604EBD47106EB61018EB20DE017
:100C300010222978129B8DE80E004B464246394619
:100C40003046FFF785FC06F1080086B26D1C30E0E7
:100C500043480088001BB04204DB41484088001B29
:100C6000B84200DABDE74FF0000B202C09D1129BEF
:100C7000CDE900534B46424639463046FFF707FF61
:100C800014E0182C09D1129BCDE900534B46424683
:100C900039463046FFF773FE08E0129BCDE900535A
:100CA0004B46424639463046FFF7E9FDAD1C301948
:100CB00086B22878002884D100BF92E72DE9FF4F43
:100CC00083B004460F4690469946DDE9105A2846FF
:100CD00001F0D2F986B222490988A1EBC60000EBE7
:100CE000D071C1F34F0B129B04EB0B0188B2CDE91D
:100CF000005A02934B4642463946FFF755FF07B06C
:100D0000BDE8F08F2DE9F04706460F46154607F17E
:100D1000270083B206F1270082B23946304600F040
:100D200042FA00240AE015F8149005EB440090F80C
:100D3000018049EA082000F00DFA641CB4F5C86F80
:100D4000F1DB07484088401E83B205480088401EFA
:100D500082B20021084600F026FABDE8F0870000C4
:100D60003400002010B504466FF0040000F05BFC76
:100D7000E11704EB5171C9101F4A11701046007839
:100D80004FF47A7148431D49088010BD01461B4A43
:100D900012884A434FF0E0235A6100229A610122EF
:100DA0001A6100BF4FF0E022106910F0010F02D06D
:100DB00010F4803FF6D000224FF0E0231A619A61D0
:100DC000704701460C4A12784A434FF0E0235A61BB
:100DD00000229A6101221A6100BF4FF0E0221069DF
:100DE00010F0010F02D010F4803FF6D000224FF037
:100DF000E0231A619A617047000000200200002081
:100E000000210020674A126842F48032654B1A6064
:100E100000BF644A126802F40030491C10B9B1F5F1
:100E2000A06FF6D15F4A126812F4003F01D0012092
:100E300000E00020012842D15B4A126842F0100213
:100E4000594B1A601A46126822F003021A601A46B9
:100E5000126842F002021A60524A5268514B5A60BC
:100E60001A4652685A601A46526842F480625A60C2
:100E70001A46526822F47C125A601A46526842F4AA
:100E8000E8125A601A46126842F080721A6000BF77
:100E9000444A126812F0007FFAD0424A526822F0A7
:100EA0000302404B5A601A46526842F002025A60EE
:100EB00000BF3C4A526802F00C02082AF9D1704780
:100EC00010B5FFF79DFF10BD10B53648006840F023
:100ED00001003449086008464068344908403149F7
:100EE000486008460068324908402E4908600846B4
:100EF000006820F4802008600846406820F4FE0066
:100F000048604FF41F008860FFF7DAFF4FF0006081
:100F10002849086010BD10B5002100200022214B97
:100F20005B6803F00C0121B1042906D0082928D1FF
:100F300007E0214B214C236027E01F4B1F4C23600F
:100F400023E0184B5B6803F47010164B5B6803F4E6
:100F50008032022303EB904022B9194B4343174CD4
:100F600023600DE00F4B5B6813F4003F04D0144B7B
:100F70004343124C236003E00F4B43430F4C236069
:100F800003E00D4B0D4C236000BF00BF054B5B68B9
:100F9000C3F303130B4CE15C084B1B68CB40074CBD
:100FA000236010BD00100240002002400000FFF846
:100FB000FFFFF6FE08ED00E000127A0004000020BA
:100FC00000093D00080000200021082119E010F070
:100FD000800F04D04FF40042FF4B1A6003E04FF43F
:100FE0000042FE4B1A604FF40052FC4B1A60FC4B5F
:100FF000C3F8102C4FEA40624FEA1260A1F10102DF
:10100000D1B20029E3DC7047024600BF108910F01E
:10101000020FFBD0918100BF108910F0010FFBD0AF
:101020009089C0B2704702884FF6C7731A40028099
:10103000012902D10288028003E0028842F02002E6
:101040000280028842F040020280704700B587B0FB
:101050000121092000F01DFE4FF42040ADF80400EE
:1010600003208DF8060018208DF8070001A9DA4842
:10107000103800F05BFB4FF48040ADF804004820CE
:101080008DF8070003208DF8060001A9D24810381A
:1010900000F04CFB4FF4F050ADF8040003208DF845
:1010A000060010208DF8070001A9CB48103800F089
:1010B0003DFB0121880300F0F9FD0020ADF8080098
:1010C0004FF48270ADF80A000020ADF80C00022049
:1010D000ADF80E000120ADF810004002ADF812008E
:1010E0000020ADF81400ADF816000720ADF8180088
:1010F00002A9BC4800F05EFE0121BA4800F0FDFEE6
:1011000007B000BD00B503464FF40060B349086066
:101110004FF48060B249C1F8140CD9B2B148FFF75E
:1011200073FF4FF40060AC49086000BD00B5034692
:101130004FF40060A94908604FF48060A849C1F8E5
:10114000100C1946A748FFF75FFF4FF40060A24953
:10115000086000BD00B503464FF400609F49086079
:101160004FF480609E49C1F8100C4FEA23219D483E
:10117000FFF74AFFD9B29B48FFF746FF4FF40060E4
:101180009549086000BD30B505460C462846FFF776
:10119000B9FFE0B2FFF7CAFF30BD00B59249088938
:1011A000FFF7B0FF00BDF0B504460D4616461F46DA
:1011B0008D494889FFF7A6FF2012FFF7B7FFA11C52
:1011C000C8B2FFF7B3FF3012FFF7B0FFB11CC8B2CF
:1011D000FFF7ACFF84498889FFF794FF2812FFF7D7
:1011E000A5FFE91CC8B2FFF7A1FF3812FFF79EFF69
:1011F000F91CC8B2FFF79AFFFFF7CFFFF0BD30B57B
:1012000004460D462B46224629462046FFF7CBFFD3
:1012100030BD30B504460D4629462046FFF7EFFFA6
:1012200072480088FFF796FF30BD08B501210820FD
:1012300000F02FFD4FF47E40ADF8000003208DF844
:10124000020010208DF8030069466348103800F052
:101250006DFA08BD10B54FF48050604908604FF03A
:101260006400FFF793FD4FF480505D49C1F8100C06
:101270003220FFF78BFD10BD00B52C205A490881A4
:10128000002088718020088048802A2048812B20F7
:101290008881C8213620FFF776FF00BD10B5FFF723
:1012A000D5FEFFF7D7FF1120FFF72CFF7820FFF7BF
:1012B0006DFDB120FFF726FF0120FFF737FF2C203F
:1012C000FFF734FF2D20FFF731FFB220FFF71AFFA1
:1012D0000120FFF72BFF2C20FFF728FF2D20FFF721
:1012E00025FFB320FFF70EFF0120FFF71FFF2C2083
:1012F000FFF71CFF2D20FFF719FF0120FFF716FF56
:101300002C20FFF713FF2D20FFF710FFB420FFF76D
:10131000F9FE0720FFF70AFFC020FFF7F3FEA22027
:10132000FFF704FF0220FFF701FF8420FFF7FEFE16
:10133000C120FFF7E7FEC520FFF7F8FEC220FFF748
:10134000E1FE0A20FFF7F2FE0020FFF7EFFEC320C8
:10135000FFF7D8FE8A20FFF7E9FE2A20FFF7E6FE16
:10136000C420FFF7CFFE8A20FFF7E0FEEE20FFF754
:10137000DDFEC520FFF7C6FE0E20FFF7D7FE3620A4
:10138000FFF7C0FEC820FFF7D1FEE020FFF7BAFE4E
:101390000F20FFF7CBFE1A20FFF7C8FE0F20FFF744
:1013A000C5FE1820FFF7C2FE2F20FFF7BFFE282042
:1013B000FFF7BCFE2020FFF7B9FE2220FFF7B6FEA4
:1013C0001F20FFF7B3FE1B20FFF7B0FE2320FFF71F
:1013D000ADFE37200CE00000100C0140140C014061
:1013E00000000140003800403400002018000020B8
:1013F000FFF79CFE0020FFF799FE0720FFF796FEFF
:101400000220FFF793FE1020FFF790FEE120FFF788
:1014100079FE0F20FFF78AFE1B20FFF787FE0F20C3
:10142000FFF784FE1720FFF781FE3320FFF77EFED3
:101430002C20FFF77BFE2920FFF778FE2E20FFF7F8
:1014400075FE3020FFF772FE3020FFF76FFE392067
:10145000FFF76CFE3F20FFF769FE0020FFF766FEF6
:101460000720FFF763FE0320FFF760FE1020FFF761
:101470005DFE2A20FFF746FE0020FFF757FE002002
:10148000FFF754FE0020FFF751FE7F20FFF74EFECE
:101490002B20FFF737FE0020FFF748FE0020FFF764
:1014A00045FE0020FFF742FE9F20FFF73FFEF020A1
:1014B000FFF728FE0120FFF739FEF620FFF722FE96
:1014C0000020FFF733FE3A20FFF71CFE0520FFF750
:1014D0002DFE2920FFF716FEFFF7CEFE4FF4007019
:1014E0001249086010BD70B5064611484088401E7C
:1014F00083B20F480088401E82B200210846FFF7E1
:1015000052FE00240CE0002504E03046FFF722FEE6
:10151000681C85B206484088A842F6DC601C84B28C
:1015200003480088A042EEDC70BD0000100C0140B2
:10153000340000200948804709480047FEE7FEE7DD
:10154000FEE7FEE7FEE7FEE7FEE7FEE7FEE7FEE773
:1015500004480549054A064B70470000C90E0008BB
:10156000ED000008A8000020A8060020A802002026
:10157000A802002036490143364A1160704770B511
:10158000002100230F22C4784CB3324C246804F4A9
:10159000E064C4F5E0644FEA1421C1F1040322FAC7
:1015A00001F2447804FA03F1847804EA020444EA7C
:1015B00001014FEA0111284C0678A155047804F086
:1015C0001F054FF0010404FA05F405784FEA65158C
:1015D0004FF0E02606EB8505C5F8004109E00478E8
:1015E00004F01F050124AC401C4D0678761145F827
:1015F000264070BD1A4A0A4002431A4B1A607047CF
:1016000041B1194A126842EA00024FF0E023C3F8E0
:10161000102D07E0144A126822EA00024FF0E0237E
:10162000C3F8102D7047042808D14FF0E021096954
:1016300041F004014FF0E022116107E04FF0E0219A
:10164000096921F004014FF0E022116170470000A8
:101650000000FA050CED00E000E400E080E100E0AD
:1016600080FFFF1F08ED00E010ED00E010B504461C
:10167000CA48844208D10121042000F024FB002143
:10168000042000F020FB46E0C548844208D1012137
:10169000082000F018FB0021082000F014FB3AE0BD
:1016A000C048844208D10121102000F00CFB002129
:1016B000102000F008FB2EE0BB48844208D1012135
:1016C000202000F000FB0021202000F0FCFA22E0A6
:1016D000B648844208D10121402000F0F4FA0021EC
:1016E000402000F0F0FA16E0B148844208D1012110
:1016F000802000F0E8FA0021802000F0E4FA0AE0FF
:10170000AC48844207D10121801500F0DCFA0021A9
:10171000A01500F0D8FA10BD10B50121084600F060
:10172000D2FA0021012000F0CEFA10BD2DE9F041DF
:10173000024600250026002000230024002791F8FF
:1017400003C00CF00F0591F803C01CF0100F03D07C
:1017500091F802C04CEA0505B1F800C01CF0FF0F7B
:1017600031D0146800202BE04FF0010C0CFA00F38C
:10177000B1F800C00CEA03069E4220D183004FF06E
:101780000F0C0CFA03F7BC4305FA03FC4CEA040403
:1017900091F803C0BCF1280F06D14FF0010C0CFAF0
:1017A00000FCC2F814C00AE091F803C0BCF1480F75
:1017B00005D14FF0010C0CFA00FCC2F810C0401C1F
:1017C0000828D1D31460B1F800C0BCF1FF0F34DD9C
:1017D000546800202EE000F1080C4FF0010808FAD0
:1017E0000CF3B1F800C00CEA03069E4221D183003D
:1017F0004FF00F0C0CFA03F7BC4305FA03FC4CEA5C
:10180000040491F803C0BCF1280F05D100F1080CC5
:1018100008FA0CF8C2F8148091F803C0BCF1480F24
:1018200007D100F1080C4FF0010808FA0CF8C2F8D3
:101830001080401C0828CED35460BDE8F0814FF6DC
:10184000FF710180022181700421C170704702463E
:10185000002093680B4201D0012000E00020704777
:101860000146886880B2704702460020D3680B4268
:1018700001D0012000E0002070470146C86880B216
:10188000704701617047416170470AB1016100E032
:1018900041617047C16070474FF480320A438261F2
:1018A0008161826182698269704702460020424BF1
:1018B00018684FF68073184040EA021008433E4B08
:1018C000186070473D49C8617047F0B50A4600236B
:1018D00000240021002500F00046B6F1004F02D19F
:1018E000354EF16901E0344E7168C0F3034583B2AF
:1018F00000F44016B6F5401F08D121F070612E4E5D
:10190000766826F070662C4F7E6012E000F4801638
:10191000B6F5801F06D1032606FA05F4A14341F06F
:10192000706106E0460D360103FA06F6B14341F058
:10193000706122B1460D360103FA06F6314300F01C
:101940000046B6F1004F02D11B4EF16101E01A4E84
:101950007160F0BD30B500228B071C0F0F2303FA16
:1019600004F2154B08338C1053F824309343124C77
:1019700008348D1044F8253023468C1053F8243059
:101980008C07240F00FA04F423430B4C08348D1009
:1019900044F8253030BD0A4908607047000801400E
:1019A000000C0140001001400014014000180140EB
:1019B000001C0140002001400000014000002042C6
:1019C000DC002042DB48006840F00100D949086093
:1019D00008464068D8490840D6494860084600682B
:1019E000D6490840D34908600846006820F48020A2
:1019F00008600846406820F4FE0048604FF41F006D
:101A000088607047CB49096821F48031C94A116068
:101A10001146096821F480211160B0F5803F03D0A0
:101A2000B0F5802F0ED106E0C249096841F480313B
:101A3000C04A116007E0BF49096841F4A021BD4ACE
:101A4000116000E000BF00BF704710B501460022E2
:101A5000002300204A11012A02D1B64C236806E077
:101A6000022A02D1B34C236A01E0B24C636A01F04E
:101A70001F02012494401C4201D0012000E00020FC
:101A800010BD70B500240025002600BF3120FFF7EF
:101A9000DCFF0646641CB4F5A06F01D0002EF5D023
:101AA0003120FFF7D2FF08B1012500E000252846CC
:101AB00070BD014600209F4A106820F0F80040EAFF
:101AC000C100106070479E490860704702460020C0
:101AD000984B586820F47C1042EA01031843954B58
:101AE0005860704796490866704701460020914A41
:101AF000506820F003000843506070478D484068EC
:101B000000F00C007047014600208A4A506820F01F
:101B1000F00008435060704701460020854A506835
:101B200020F4E06008435060704701460020814A7D
:101B3000506820F4605040EAC1005060704729B1FD
:101B40007C4A527A02437B4B5A7206E0794A527AB7
:101B5000C343DBB21A40774B5A7270477949086029
:101B6000704701460020734A506820F44040084303
:101B7000506070470021744A11706E4A82F820103C
:101B8000012802D0042808D103E001216E4A117017
:101B900004E005216C4A117000E000BF00BF7047EF
:101BA0006A49086070476349096A0143614A1162E2
:101BB000704767490860704730B500210022002453
:101BC00000235C4D6D6805F00C0121B1042905D09E
:101BD000082923D105E05F4D056022E05D4D0560D9
:101BE0001FE0544D6D6805F47012524D6D6805F498
:101BF0008034022505EB92421CB9574D55430560D0
:101C00000BE04C4D6D6815F4003F03D0524D554329
:101C1000056002E04F4D5543056002E04D4D056003
:101C200000BF00BF434D6D6805F0F00109094B4D41
:101C30006B5C0568DD4045603E4D6D6805F4E06114
:101C4000090A464D6B5C4568DD408560394D6D681D
:101C500005F46051C90A414D6B5C4568DD40C560C3
:101C6000344D6D6805F44041890B3D4D6B5CC56892
:101C7000B5FBF3F5056130BD29B12E4A5269024327
:101C80002C4B5A6104E02B4A52698243294B5A611A
:101C9000704729B1274A92690243264B9A6104E0B2
:101CA000244A92698243234B9A61704729B1214AA1
:101CB000D26902431F4BDA6104E01E4AD2698243B3
:101CC0001C4BDA61704729B11A4AD2680243194B9A
:101CD000DA6004E0174AD2688243164BDA60704734
:101CE00029B1144A12690243124B1A6104E0114AE5
:101CF000126982430F4B1A6170471A490860704796
:101D00000F49C86470470B49C87170470948406A59
:101D100040F0807007494862704701460020054A3C
:101D200092680A4201D0012000E00020704701497A
:101D300088727047001002400000FFF8FFFFF6FEB7
:101D400000004242D8004242201002408004424239
:101D50003C04424200127A0000093D001E000020AF
:101D60002E0000204004424210B50446BF48844281
:101D700008D101218014FFF7A6FF0021A014FFF76E
:101D8000A2FF16E0BA48844208D101210014FFF7EF
:101D9000A7FF00212014FFF7A3FF0AE0B548844203
:101DA00007D10121C013FFF79BFF0021E013FFF7CC
:101DB00097FF10BD10B50022028802F441520B8833
:101DC0004C8823438C882343CC8823430C892343AA
:101DD0004C8923438C892343CC8923431A430280B3
:101DE000838B4FF2FF74234083830B8A038210BDE1
:101DF0002DE9F04F85B005460C464FF0000902274B
:101E00004FF000084FF0010B0026B246A88B4FF2AE
:101E100040010840A88302202884B5F81C90A068DF
:101E2000022801D100BF36E0A08810B94FF0010BA5
:101E300001E04FF0020B8E48854200D100E000BF68
:101E40006846FFF7B9FEDDF800A0E088B0F5007F36
:101E50000AD14FEA1A2000EB80004000A168B0FBD5
:101E6000F1F0401D86B20BE04FEA4B10BAFBF0F0E8
:101E700000EB80004000A168B0FBF1F0401D86B28D
:101E80000A20B6FBF0F606F00108A6EB0800C0F346
:101E90004F074FEA0828022F01DBFF2F02DD022740
:101EA0004FF00008E08840EA080038432884A08802
:101EB000A1890843618808432188084340F40060F1
:101EC00040EA0909A5F81C9005B0BDE8F08F002193
:101ED000018041808180C180018141818181C181F6
:101EE0000721018270470021018041808180C180EB
:101EF0000221816000218181704721B1028842F076
:101F00004002028004E002884FF6BF731A4002804C
:101F1000704721B1828B42F48062828304E0828B1D
:101F20004FF6FF331A408283704770B500240023B8
:101F30000C110125A540ABB21AB185881D438580DF
:101F400004E08588DE43B6B23540858070BD10B5AB
:101F50001AB183880B43838004E08388CC43A4B206
:101F60002340838010BD8181704701468889704776
:101F7000A1F57E42FF3A04D0028842F480720280CA
:101F800004E002884FF6FF631A400280704721B1D7
:101F9000828842F00402828004E082884FF6FB735C
:101FA0001A408280704702884FF2FF731A40028005
:101FB00002880A4302807047018841F48051018001
:101FC000704721B1028842F40052028004E0028886
:101FD0004DF6FF731A400280704702460020012927
:101FE00001D0108B00E0908A70470146088A704744
:101FF000B1F5804F04D1028842F48042028004E0AF
:1020000002884BF6FF731A40028070470246002098
:1020100013890B4201D0012000E000207047CA4321
:1020200002817047F0B502460020002400230025FD
:1020300001F00F070126BE40B4B20B1101269E40ED
:10204000B3B2968806EA03051689264202D00DB17E
:10205000012000E00020F0BD10B5002201F00F04C7
:102060000123A3409AB2D343038110BD0030014045
:1020700000380040003C004010B5431C02E010F85E
:10208000011B71B18107FAD14FF0013202C88C1ADD
:102090008C4314EAC211F9D0C01A0A0603D0C01E3C
:1020A00010BDC01A10BD0A0401D0801E10BD090267
:1020B000FCD0401E10BD7047704770470048704705
:1020C000440000207546FFF7F9FFAE46050069465B
:1020D000534620F00700854618B020B5FFF738FAC0
:1020E000BDE820404FF000064FF000074FF0000819
:1020F0004FF0000B21F00701AC46ACE8C009ACE89A
:10210000C009ACE8C009ACE8C0098D467047044678
:10211000AFF300802046FEF732F800000148704718
:10212000704700BF4800002001491820ABBEFEE701
:1021300026000200704710B5FFF7F0FF4FF00001D6
:10214000016010BD00000000000000000000000061
:1021500000000404040404040004000000140A0A3B
:102160000000000000000000000014143F140A3FAB
:102170000A0A000000041E1505060C14150F0400C1
:10218000000012150D0A142C2A1200000000040A87
:102190000A1E1515093600000002020100000000A9
:1021A000000000000020100808080808081020009F
:1021B00000020408080808080804020000000004DF
:1021C000150E0E150400000000000404041F040492
:1021D00004000000000000000000000000020201F6
:1021E00000000000001F00000000000000000000D0
:1021F00000000000000200000010080808040402AB
:102200000202010000000E1111111111110E000047
:102210000000040604040404040E000000000E1173
:1022200011080402011F000000000E11100C101014
:10223000110E00000000080C0A0A091E0818000010
:1022400000001F01010F1010110E000000000E0908
:10225000010F1111110E000000001F0908040404F1
:102260000404000000000E11110E1111110E0000E7
:1022700000000E1111111E10120E000000000000CF
:102280000400000000040000000000000004000042
:1022900000040400002010080402040810200000BC
:1022A000000000001F00001F0000000000020408E2
:1022B000102010080402000000000E111108040490
:1022C0000004000000000E111915151D011E00006C
:1022D000000004040C0A0A1E1233000000000F1252
:1022E000120E1212120F000000001E110101010156
:1022F000110E000000000F1212121212120F000035
:1023000000001F120A0E0A02121F000000001F1216
:102310000A0E0A020207000000001C120101391116
:10232000120C000000003312121E121212330000B1
:1023300000001F0404040404041F000000003E0801
:102340000808080808090700000037120A060A0AE8
:10235000123700000000070202020202223F0000C2
:1023600000001B1B1B1B15151515000000003B1260
:1023700016161A1A1217000000000E111111111171
:10238000110E000000000F12120E020202070000E0
:1023900000000E1111111117190E180000000F1274
:1023A000120E0A121237000000001E11010608105A
:1023B000110F000000001F1504040404040E0000A7
:1023C0000000331212121212120C0000000033121D
:1023D000120A0A0C0404000000001515150E0A0A62
:1023E0000A0A000000001B0A0A04040A0A1B000073
:1023F00000001B0A0A040404040E000000001F0968
:1024000008040402121F0000001C04040404040455
:1024100004041C0000020202040408080810000062
:10242000000E08080808080808080E0000040A0042
:10243000000000000000000000000000000000009C
:102440000000003F00040000000000000000000049
:1024500000000000000C121C123C000000000302EF
:10246000020E1212120E000000000000001C1202E8
:10247000021C000000001810101C1212123C000078
:1024800000000000000C121E021C000000003804B6
:10249000041E0404041E000000000000003C120C96
:1024A000021E221C00000302020E1212123700004C
:1024B0000000040000060404040E000000000800F0
:1024C000000C08080808080700000302023A0A0E78
:1024D000123700000000070404040404041F000075
:1024E00000000000000F1515151500000000000089
:1024F000000F12121237000000000000000C121230
:10250000120C000000000000000F1212120E020751
:1025100000000000001C1212121C10380000000005
:10252000001B06020207000000000000001E020C53
:10253000101E000000000004040E04040418000033
:1025400000000000001B1212123C000000000000FE
:102550000037120A0C040000000000000015150EE0
:102560000A0A000000000000001B0A040A1B000009
:10257000000000000037120A0C04040300000000F1
:10258000001E0804041E00000018080808040808BB
:1025900008081800080808080808080808080808B3
:1025A00000060404040804040404060002251800BC
:1025B000000000000000000000000000000000001B
:1025C00000000000000000000000000808080808E3
:1025D000080800001818000000486C2412000000D1
:1025E00000000000000000000000002424247F12EE
:1025F00012127F12121200000000081C2A2A0A0C74
:102600001828282A2A1C080800000022251515155C
:102610002A585454542200000000000C1212120ACE
:1026200076252911916E00000006060403000000C3
:102630000000000000000000004020101008080802
:1026400008080810102040000002040808101010AC
:1026500010101008080402000000000008086B1C9D
:102660001C6B0808000000000000000008080808B3
:102670007F080808080000000000000000000000BB
:102680000000000006060403000000000000000037
:10269000FE0000000000000000000000000000003C
:1026A00000000000060600000000804040202010CE
:1026B00010080804040202000000001824424242EC
:1026C0004242424224180000000000080E08080898
:1026D00008080808083E00000000003C4242422072
:1026E00020100804427E00000000003C42422018F6
:1026F00020404042221C00000000002030282424FA
:1027000022227E20207800000000007E0202021AB1
:1027100026404042221C0000000000382402021A19
:1027200026424242241800000000007E222210109F
:1027300008080808080800000000003C4242422443
:1027400018244242423C0000000000182442424249
:1027500064584040241C00000000000000001818CD
:102760000000000018180000000000000000000831
:1027700000000000000808040000004020100804C9
:1027800002040810204000000000000000007F004C
:1027900000007F000000000000000002040810207C
:1027A00040201008040200000000003C4242464065
:1027B00020101000181800000000001C225A555567
:1027C00055552D42221C0000000000080818141462
:1027D000243C224242E700000000001F2222221E69
:1027E00022424242221F00000000007C42420101BE
:1027F00001010142221C00000000001F224242424F
:1028000042424242221F00000000003F4212121EBC
:1028100012120242423F00000000003F4212121E0C
:1028200012120202020700000000003C22220101F5
:1028300001712122221C0000000000E742424242B6
:102840007E42424242E700000000003E08080808BD
:1028500008080808083E00000000007C1010101056
:10286000101010101010110F0000007722120A0E25
:102870000A12122222770000000000070202020260
:1028800002020202427F0000000000773636363630
:102890002A2A2A2A2A6B0000000000E346464A4AF8
:1028A00052525262624700000000001C2241414126
:1028B00041414141221C00000000003F424242428F
:1028C0003E020202020700000000001C22414141BA
:1028D00041414D53321C60000000003F4242423EE5
:1028E0001212222242C700000000007C4242020471
:1028F00018204042423E00000000007F49080808BE
:1029000008080808081C0000000000E74242424294
:1029100042424242423C0000000000E74242222480
:1029200024141418080800000000006B49494949A4
:102930005555362222220000000000E742242418C8
:102940001818242442E70000000000772222141403
:1029500008080808081C00000000007E2120101054
:1029600008040442423F00000078080808080808EC
:102970000808080808087800000002020404080893
:102980000810102020204040001E101010101010C1
:102990001010101010101E0000384400000000003D
:1029A0000000000000000000000000000000000027
:1029B00000000000000000FF00060800000000000A
:1029C0000000000000000000000000000000003CCB
:1029D0004278444242FC0000000000030202021A56
:1029E00026424242261A0000000000000000003883
:1029F0004402020244380000000000604040407879
:102A00004442424264D80000000000000000003C44
:102A1000427E0202423C0000000000F08808087E6E
:102A200008080808083E0000000000000000007CC4
:102A300022221C023C42423C000000030202023AF5
:102A40004642424242E700000000000C0C00000E2B
:102A500008080808083E0000000000303000003878
:102A6000202020202020221E0000000302020272EB
:102A7000120A1612227700000000000E080808084B
:102A800008080808083E0000000000000000007F61
:102A90009292929292B70000000000000000003B6A
:102AA0004642424242E70000000000000000003CB5
:102AB00042424242423C0000000000000000001B75
:102AC00026424242221E0207000000000000007859
:102AD00044424242447840E0000000000000007799
:102AE0004C040404041F0000000000000000007CEF
:102AF00042023C40423E0000000000000008083E48
:102B0000080808080830000000000000000000630A
:102B10004242424262DC000000000000000000E788
:102B2000422424140808000000000000000000EB0C
:102B3000494955552222000000000000000000769F
:102B400024181818246E000000000000000000E7A0
:102B50004224241418080807000000000000007E2A
:102B600022100808447E000000C0202020202010F1
:102B7000202020202020C000101010101010101055
:102B80001010101010101010000608080808081087
:102B900008080808080806000C32C20000000000FF
:102BA00000000000000000000000000000001FE026
:102BB0001FC06FD077B070307030703070307030B0
:102BC0007030201070307030703070307030703075
:102BD00067D06FE01FE01FE0000000000000380039
:102BE000780036002E000E000E000E000E000E00C3
:102BF0000400000004000E000E000E000E000E0087
:102C00000E000E000E0004000000000000003FF067
:102C10007FE07FE03FD000300030003000300030F7
:102C20001FD01FE02FE077E07000700070006000A0
:102C30006FF05FF03FF03FF00000000000003FF059
:102C40007FF07FE03FD000300030003000300030B7
:102C50003FB07FD07FD03FB0003000300030003038
:102C60003FD07FE07FF03FF0000000000000201028
:102C70007030703070307030703070307030703054
:102C800037B00FD00FD007B0003000300030003028
:102C900000300030003000100000000000001FF085
:102CA0005FF06FF077F070007000700070003F8090
:102CB0001FC01FC00FB000300030003000300030A7
:102CC0003FD07FD07FE03FE00000000000001FF019
:102CD0001FF06FF077F070007000700070007000EF
:102CE00077C02FC06FD077B07030703070307030D8
:102CF00067D06FE01FE01FE00000000000003FE031
:102D00007FE07FD03F900030003000300030003056
:102D10000030001000100030003000300030003073
:102D200000300030003000100000000000001FE004
:102D30001FC06FD077B0703070307030703070302E
:102D400077B02FD06FF077B0703070307030703057
:102D500067D06FE01FE01FC00000000000001FE010
:102D60001FC06FD077B070307030703070307030FE
:102D70006FB00FD00FF00FB00030003000300030D7
:102D80003FD07FE07FE03FC0000000000000000077
:102D90000000000000000000600060002000000053
:102DA0000000000000000000200060006000000043
:102DB0000000000000000000000000000000000013
:102DC0000000000000000000000000000000000003
:102DD0000000000000000000000000003C003C007B
:102DE0003C00000000000000CFB50000000C3FF8E0
:102DF000030006380C701FC0038C0E0C3FFE0DB68E
:102E00000D98199C318C31866786CDB30000000087
:102E100018301BFF306036CC6CCC7D8619FE18DB79
:102E200030D87FD870DB019B1F9B771FBCE0000070
:102E3000000006C036FF36C0378037B03718060CA2
:102E400000003FFE36663666366636667FFFBFD8C0
:102E5000000000003060306037FF7EFB379E338C0F
:102E60003F06380031FC70603060306030607FFFBA
:102E7000A1E6C00023E82C18D80810083000300064
:102E80003000300030003000100018080C1003E053
:102E90000000CEC20000000000001000000C7FF017
:102EA000044020044020014020027FE062402032A4
:102EB0004020124020047FE004000005001004FFC1
:102EC000F808891078891018891018891018891045
:102ED0001889101889160776E8000000CAAA0000B1
:102EE00000000000100010087FF80C601004601053
:102EF000016010427FF03260101A6010127FF004FF
:102F0000690004088005088C08888C18C89838481F
:102F1000901868A01048C010088030088010088CF5
:102F200003F770000000B6C80000000010000008A1
:102F300000000C080FFFFC0840000830C008208883
:102F400008209C0FFFE0082080082080083F8008B0
:102F5000000019FFE01820C0102080101180100B15
:102F600000200600201B804060FE47801800000003
:102F7000B5E700000000000000180000100000107D
:102F8000000010000FFFF00810200810200810208B
:102F90000810200FFFE0081020081020081020085B
:102FA00010200FFFE00810000010080010080010AB
:102FB0000400180C000FF8000000D1B90000000058
:102FC00000000000180FFFFC0C00000C0C000C0CA3
:102FD000000C0C000C0C000C0C000C0C000DFFF095
:102FE0000C0C000C0C00080C80080C40080C60084D
:102FF0000C30100C20100C00200C0C27F3F04000BB
:1030000000000000C1F700000000080000060008F2
:10301000020804FFFC0604000004000108404110FF
:1030200020312030127FD01200100464600464400C
:1030300004644008644078644018444018444418CC
:10304000C44418844419047E060400000000A1E66C
:103050000000000000000000000C0000121F8012A1
:1030600030681260180CC0180080080180080180C8
:1030700000018000018000018000018000008000CC
:1030800000C00000C0100060200038C0000F000029
:103090000000000000000000A3BA000000000000D3
:1030A0000000000000000000000000000000000020
:1030B0000000000000000000000000000000000010
:1030C000001C00001C00000C0000000000000000BC
:1030D0000C00001C00001C000000000000000000AC
:1030E0000000A3A500000000000000000000000098
:1030F0000700180880300880600880C008818008B8
:1031000081000882000504000208000011E000218F
:10311000100041100083100103100201100401107F
:103120000800E0000000000000000000A3D600003E
:10313000000000000000000000000FC1F00300408C
:1031400003004001008001808001810000C1000077
:10315000C300006200006200002400003400001878
:10316000000018000018000000000000000000002F
:10317000000000000000A3C10000000000000000EB
:1031800000000000000000000800001800001C0003
:10319000002C0000240000660000460000C3000070
:1031A000830000FF000101800101800200C00200D5
:1031B000C00F83F0000000000000000000000000CD
:1031C000D7D6000000000006000000030000000049
:1031D000C0000001C0C0000107C00001FF00021FC5
:1031E000FE0007F01C0007C070000F00E0000E0397
:1031F000F0001C0FF0003C0F70003C00E0001800D5
:10320000C0000000C0000000C0000000600000001E
:103210002000000037000001FF00007FF80007F8E1
:1032200030001F8030000080300000C0300000609F
:1032300060000018E000000FC00000060000000061
:10324000000000006432000800000020340000008C
:10325000280100089832000834000020740600009D
:10326000440100080000000000A24A040000000021
:103270000000000001020304060708090000FFFF28
:10328000000000000000010203040102030406071D
:08329000080902040608000011
:04000005080000ED02
:00000001FF
